{
  "contractName": "IOTokenSale",
  "abi": [
    {
      "constant": true,
      "inputs": [],
      "name": "tokenContract",
      "outputs": [
        {
          "name": "",
          "type": "address"
        }
      ],
      "payable": false,
      "stateMutability": "view",
      "type": "function"
    },
    {
      "constant": true,
      "inputs": [],
      "name": "tokenPrice",
      "outputs": [
        {
          "name": "",
          "type": "uint256"
        }
      ],
      "payable": false,
      "stateMutability": "view",
      "type": "function"
    },
    {
      "inputs": [
        {
          "name": "_tokenContract",
          "type": "address"
        },
        {
          "name": "_tokenPrice",
          "type": "uint256"
        }
      ],
      "payable": false,
      "stateMutability": "nonpayable",
      "type": "constructor"
    }
  ],
  "bytecode": "0x608060405234801561001057600080fd5b506040516040806102068339810180604052604081101561003057600080fd5b810190808051906020019092919080519060200190929190505050336000806101000a81548173ffffffffffffffffffffffffffffffffffffffff021916908373ffffffffffffffffffffffffffffffffffffffff16021790555081600160006101000a81548173ffffffffffffffffffffffffffffffffffffffff021916908373ffffffffffffffffffffffffffffffffffffffff160217905550806002819055505050610122806100e46000396000f3fe6080604052600436106049576000357c0100000000000000000000000000000000000000000000000000000000900463ffffffff16806355a373d614604e5780637ff9b5961460a2575b600080fd5b348015605957600080fd5b50606060ca565b604051808273ffffffffffffffffffffffffffffffffffffffff1673ffffffffffffffffffffffffffffffffffffffff16815260200191505060405180910390f35b34801560ad57600080fd5b5060b460f0565b6040518082815260200191505060405180910390f35b600160009054906101000a900473ffffffffffffffffffffffffffffffffffffffff1681565b6002548156fea165627a7a7230582033d5b4bf5e959471774d0868b6e60eb57040479e3220b7c91828201a1966e05c0029",
  "source": "pragma solidity >=0.4.21 <0.6.0;\r\n\r\nimport \"./IOToken.sol\";\r\n\r\ncontract IOTokenSale {\r\n    // *** Administrator of the IOTokenSale contract ***\r\n    // *** State variable ***\r\n    address admin;\r\n\r\n    IOToken public tokenContract;\r\n\r\n    uint256 public tokenPrice;\r\n\r\n    constructor (IOToken _tokenContract, uint256 _tokenPrice) public {\r\n        // *** Assign an admin ***\r\n        // *** Admin is the user who deploys the contract ***\r\n        admin = msg.sender;\r\n\r\n        // *** Assign token contract ***\r\n        tokenContract = _tokenContract;\r\n\r\n        // *** Set the token price ***\r\n        tokenPrice = _tokenPrice;\r\n    }\r\n}",
  "sourcePath": "D:/dev/eth-demo/token/contracts/IOTokenSale.sol",
  "compiler": {
    "name": "solc",
    "version": "0.5.0+commit.1d4f565a.Emscripten.clang"
  },
  "schemaVersion": "3.0.9",
  "updatedAt": "2019-05-30T23:13:28.740Z",
  "devdoc": {
    "methods": {}
  },
  "userdoc": {
    "methods": {}
  }
}