{
  "contractName": "IOToken",
  "abi": [
    {
      "constant": true,
      "inputs": [],
      "name": "totalSupply",
      "outputs": [
        {
          "name": "",
          "type": "uint256"
        }
      ],
      "payable": false,
      "stateMutability": "view",
      "type": "function"
    },
    {
      "inputs": [],
      "payable": false,
      "stateMutability": "nonpayable",
      "type": "constructor"
    }
  ],
  "bytecode": "0x608060405234801561001057600080fd5b50620f4240600081905550609e806100296000396000f3fe608060405260043610603f576000357c0100000000000000000000000000000000000000000000000000000000900463ffffffff16806318160ddd146044575b600080fd5b348015604f57600080fd5b506056606c565b6040518082815260200191505060405180910390f35b6000548156fea165627a7a72305820c700da0878b2a6d8d631fce4be49bfdaf50d4773dbadb85f1000041cabc0f1f30029",
  "source": "pragma solidity >=0.4.21 <0.6.0;\r\n\r\n// *** Token contract ***\r\n// *** Used to define the ECR20 token ***\r\ncontract IOToken {\r\n\r\n    // *** Total supply of of tokens ***\r\n    uint256 public totalSupply;\r\n\r\n    // *** Constructor ***\r\n    constructor () public {\r\n\r\n        // *** Set the total number of possible tokens ***\r\n        totalSupply = 1000000;\r\n    }\r\n}",
  "sourcePath": "D:/dev/eth-demo/token/contracts/IOToken.sol",
  "compiler": {
    "name": "solc",
    "version": "0.5.0+commit.1d4f565a.Emscripten.clang"
  },
  "schemaVersion": "3.0.9",
  "updatedAt": "2019-05-30T01:26:24.864Z",
  "devdoc": {
    "methods": {}
  },
  "userdoc": {
    "methods": {}
  }
}