{
  "contractName": "IOToken",
  "abi": [
    {
      "constant": true,
      "inputs": [],
      "name": "name",
      "outputs": [
        {
          "name": "",
          "type": "string"
        }
      ],
      "payable": false,
      "stateMutability": "view",
      "type": "function"
    },
    {
      "constant": true,
      "inputs": [],
      "name": "totalSupply",
      "outputs": [
        {
          "name": "",
          "type": "uint256"
        }
      ],
      "payable": false,
      "stateMutability": "view",
      "type": "function"
    },
    {
      "constant": true,
      "inputs": [],
      "name": "standard",
      "outputs": [
        {
          "name": "",
          "type": "string"
        }
      ],
      "payable": false,
      "stateMutability": "view",
      "type": "function"
    },
    {
      "constant": true,
      "inputs": [
        {
          "name": "",
          "type": "address"
        }
      ],
      "name": "balanceOf",
      "outputs": [
        {
          "name": "",
          "type": "uint256"
        }
      ],
      "payable": false,
      "stateMutability": "view",
      "type": "function"
    },
    {
      "constant": true,
      "inputs": [],
      "name": "symbol",
      "outputs": [
        {
          "name": "",
          "type": "string"
        }
      ],
      "payable": false,
      "stateMutability": "view",
      "type": "function"
    },
    {
      "inputs": [
        {
          "name": "_initialSupply",
          "type": "uint256"
        }
      ],
      "payable": false,
      "stateMutability": "nonpayable",
      "type": "constructor"
    },
    {
      "anonymous": false,
      "inputs": [
        {
          "indexed": true,
          "name": "_from",
          "type": "address"
        },
        {
          "indexed": true,
          "name": "_to",
          "type": "address"
        },
        {
          "indexed": false,
          "name": "_value",
          "type": "uint256"
        }
      ],
      "name": "Transfer",
      "type": "event"
    },
    {
      "constant": false,
      "inputs": [
        {
          "name": "_to",
          "type": "address"
        },
        {
          "name": "_value",
          "type": "uint256"
        }
      ],
      "name": "transfer",
      "outputs": [
        {
          "name": "success",
          "type": "bool"
        }
      ],
      "payable": false,
      "stateMutability": "nonpayable",
      "type": "function"
    }
  ],
  "bytecode": "0x60806040526040805190810160405280601e81526020017f496e707574204f757470757420466c65786962696c69747920546f6b656e00008152506000908051906020019061004f92919061019d565b506040805190810160405280600481526020017f494f4654000000000000000000000000000000000000000000000000000000008152506001908051906020019061009b92919061019d565b50606060405190810160405280602581526020017f496e707574204f757470757420466c65786962696c69747920546f6b656e207681526020017f312e302e300000000000000000000000000000000000000000000000000000008152506002908051906020019061010e92919061019d565b5034801561011b57600080fd5b506040516020806109678339810180604052602081101561013b57600080fd5b810190808051906020019092919050505080600460003373ffffffffffffffffffffffffffffffffffffffff1673ffffffffffffffffffffffffffffffffffffffff168152602001908152602001600020819055508060038190555050610242565b828054600181600116156101000203166002900490600052602060002090601f016020900481019282601f106101de57805160ff191683800117855561020c565b8280016001018555821561020c579182015b8281111561020b5782518255916020019190600101906101f0565b5b509050610219919061021d565b5090565b61023f91905b8082111561023b576000816000905550600101610223565b5090565b90565b610716806102516000396000f3fe608060405260043610610078576000357c0100000000000000000000000000000000000000000000000000000000900463ffffffff16806306fdde031461007d57806318160ddd1461010d5780635a3b7e421461013857806370a08231146101c857806395d89b411461022d578063a9059cbb146102bd575b600080fd5b34801561008957600080fd5b50610092610330565b6040518080602001828103825283818151815260200191508051906020019080838360005b838110156100d25780820151818401526020810190506100b7565b50505050905090810190601f1680156100ff5780820380516001836020036101000a031916815260200191505b509250505060405180910390f35b34801561011957600080fd5b506101226103ce565b6040518082815260200191505060405180910390f35b34801561014457600080fd5b5061014d6103d4565b6040518080602001828103825283818151815260200191508051906020019080838360005b8381101561018d578082015181840152602081019050610172565b50505050905090810190601f1680156101ba5780820380516001836020036101000a031916815260200191505b509250505060405180910390f35b3480156101d457600080fd5b50610217600480360360208110156101eb57600080fd5b81019080803573ffffffffffffffffffffffffffffffffffffffff169060200190929190505050610472565b6040518082815260200191505060405180910390f35b34801561023957600080fd5b5061024261048a565b6040518080602001828103825283818151815260200191508051906020019080838360005b83811015610282578082015181840152602081019050610267565b50505050905090810190601f1680156102af5780820380516001836020036101000a031916815260200191505b509250505060405180910390f35b3480156102c957600080fd5b50610316600480360360408110156102e057600080fd5b81019080803573ffffffffffffffffffffffffffffffffffffffff16906020019092919080359060200190929190505050610528565b604051808215151515815260200191505060405180910390f35b60008054600181600116156101000203166002900480601f0160208091040260200160405190810160405280929190818152602001828054600181600116156101000203166002900480156103c65780601f1061039b576101008083540402835291602001916103c6565b820191906000526020600020905b8154815290600101906020018083116103a957829003601f168201915b505050505081565b60035481565b60028054600181600116156101000203166002900480601f01602080910402602001604051908101604052809291908181526020018280546001816001161561010002031660029004801561046a5780601f1061043f5761010080835404028352916020019161046a565b820191906000526020600020905b81548152906001019060200180831161044d57829003601f168201915b505050505081565b60046020528060005260406000206000915090505481565b60018054600181600116156101000203166002900480601f0160208091040260200160405190810160405280929190818152602001828054600181600116156101000203166002900480156105205780601f106104f557610100808354040283529160200191610520565b820191906000526020600020905b81548152906001019060200180831161050357829003601f168201915b505050505081565b600081600460003373ffffffffffffffffffffffffffffffffffffffff1673ffffffffffffffffffffffffffffffffffffffff16815260200190815260200160002054101515156105e1576040517f08c379a000000000000000000000000000000000000000000000000000000000815260040180806020018281038252601e8152602001807f62616c616e6365206e6f7420617661696c61626c6520746f2073656e642e000081525060200191505060405180910390fd5b81600460003373ffffffffffffffffffffffffffffffffffffffff1673ffffffffffffffffffffffffffffffffffffffff1681526020019081526020016000206000828254039250508190555081600460008573ffffffffffffffffffffffffffffffffffffffff1673ffffffffffffffffffffffffffffffffffffffff168152602001908152602001600020600082825401925050819055508273ffffffffffffffffffffffffffffffffffffffff163373ffffffffffffffffffffffffffffffffffffffff167fddf252ad1be2c89b69c2b068fc378daa952ba7f163c4a11628f55a4df523b3ef846040518082815260200191505060405180910390a3600190509291505056fea165627a7a72305820467882e900e13f0b1184e7000877a4b599691b70a6649694702dac6de6bf002e0029",
  "source": "pragma solidity >=0.4.21 <0.6.0;\r\n\r\n// *** Token contract ***\r\n// *** Used to define the ECR20 token ***\r\ncontract IOToken {\r\n    // *** Name of the token ***\r\n    // *** Optional for ERC20 standard ***\r\n    // *** State variable ***\r\n    // *** accessible using instance.name(); ***\r\n    string public name = \"Input Output Flexibility Token\";\r\n\r\n    // *** Symbol of the token ***\r\n    // *** Optional for ERC20 standard ***\r\n    // *** State variable ***\r\n    // *** accessible using instance.symbol(); ***\r\n    string public symbol = \"IOFT\";\r\n\r\n    // *** Internal standard version of the token ***\r\n    // *** State variable ***\r\n    // *** accessible using instance.standard(); ***\r\n    string public standard = \"Input Output Flexibility Token v1.0.0\";\r\n\r\n    // *** Total supply of tokens ***\r\n    // *** Required for ERC20 standard ***\r\n    // *** State variable ***\r\n    // *** accessible using instance.totalSupply(); ***\r\n    uint256 public totalSupply;\r\n\r\n    // *** Balance of addresses ***\r\n    // *** Required for ERC20 standard ***\r\n    // *** State variable ***\r\n    // *** accessible using instance.balanceOf(address);\r\n    mapping(address => uint256) public balanceOf;\r\n\r\n    // *** Transfer event handler ***\r\n    event Transfer(\r\n        address indexed _from,\r\n        address indexed _to,\r\n        uint256 _value\r\n    );\r\n\r\n    // *** Constructor ***\r\n    // *** uint256 _initialSupply - local scope variable ***\r\n    constructor (uint256 _initialSupply) public {\r\n\r\n        // *** Allocate the initial supply ***\r\n        // *** msg is a global variable in solidity ***\r\n        // *** msg.sender is the address that called the contract ***\r\n        balanceOf[msg.sender] = _initialSupply;\r\n\r\n        // *** Set the total supply of tokens ***\r\n        totalSupply = _initialSupply;\r\n    }\r\n\r\n    // *** Transfer function ***\r\n    // *** Required by ERC20 standard ***\r\n    // *** Exception: if account doesn't have enough supply for xfer ***\r\n    // *** Returns: boolean ***\r\n    function transfer(address _to, uint256 _value) public returns(bool success){\r\n        // *** Ensure the sender has at least the desired amount of tokens to transfer ***\r\n        require(balanceOf[msg.sender] >= _value, \"balance not available to send.\");\r\n\r\n        // *** Deduct balance (_value) from sender ***\r\n        balanceOf[msg.sender] -= _value;\r\n\r\n        // *** Add balance (_value) to receiver ***\r\n        balanceOf[_to] += _value;\r\n\r\n        // *** Emit the transfer event ***\r\n        emit Transfer(msg.sender, _to, _value);\r\n\r\n        // *** Return true if the function has executed this far. ***\r\n        return true;\r\n    }\r\n}",
  "sourcePath": "D:/dev/eth-demo/token/contracts/IOToken.sol",
  "compiler": {
    "name": "solc",
    "version": "0.5.0+commit.1d4f565a.Emscripten.clang"
  },
  "schemaVersion": "3.0.9",
  "updatedAt": "2019-05-30T19:23:37.984Z",
  "devdoc": {
    "methods": {}
  },
  "userdoc": {
    "methods": {}
  }
}